{
  "contractName": "Certificate",
  "abi": [
    {
      "inputs": [],
      "stateMutability": "nonpayable",
      "type": "constructor"
    },
    {
      "anonymous": false,
      "inputs": [
        {
          "indexed": true,
          "internalType": "address",
          "name": "oldOwner",
          "type": "address"
        },
        {
          "indexed": true,
          "internalType": "address",
          "name": "newOwner",
          "type": "address"
        }
      ],
      "name": "OwnerSet",
      "type": "event"
    },
    {
      "inputs": [
        {
          "internalType": "address",
          "name": "newOwner",
          "type": "address"
        }
      ],
      "name": "changeOwner",
      "outputs": [],
      "stateMutability": "nonpayable",
      "type": "function"
    },
    {
      "inputs": [],
      "name": "getOwner",
      "outputs": [
        {
          "internalType": "address",
          "name": "",
          "type": "address"
        }
      ],
      "stateMutability": "view",
      "type": "function"
    },
    {
      "inputs": [
        {
          "internalType": "string",
          "name": "batch",
          "type": "string"
        },
        {
          "internalType": "string",
          "name": "root",
          "type": "string"
        }
      ],
      "name": "addRoot",
      "outputs": [],
      "stateMutability": "nonpayable",
      "type": "function"
    },
    {
      "inputs": [
        {
          "internalType": "string",
          "name": "batch",
          "type": "string"
        },
        {
          "internalType": "string",
          "name": "root",
          "type": "string"
        }
      ],
      "name": "verifyRoot",
      "outputs": [
        {
          "internalType": "bool",
          "name": "",
          "type": "bool"
        }
      ],
      "stateMutability": "view",
      "type": "function"
    }
  ],
  "bytecode": "0x608060405234801561001057600080fd5b50336000806101000a81548173ffffffffffffffffffffffffffffffffffffffff021916908373ffffffffffffffffffffffffffffffffffffffff16021790555060008054906101000a900473ffffffffffffffffffffffffffffffffffffffff1673ffffffffffffffffffffffffffffffffffffffff16600073ffffffffffffffffffffffffffffffffffffffff167f342827c97908e5e2f71151c08502a66d44b6f758e3ac2f1de95f02eb95f0a73560405160405180910390a3610925806100db6000396000f3fe608060405234801561001057600080fd5b506004361061004c5760003560e01c80634d9ac05014610051578063538b4a6c14610081578063893d20e81461009d578063a6f9dae1146100bb575b600080fd5b61006b60048036038101906100669190610568565b6100d7565b60405161007891906105fb565b60405180910390f35b61009b60048036038101906100969190610568565b610132565b005b6100a56101f7565b6040516100b29190610657565b60405180910390f35b6100d560048036038101906100d0919061069e565b610220565b005b60008082805190602001206001856040516100f29190610745565b908152602001604051809103902060405161010d919061085b565b6040518091039020036101235760019050610128565b600090505b8091505092915050565b60008054906101000a900473ffffffffffffffffffffffffffffffffffffffff1673ffffffffffffffffffffffffffffffffffffffff163373ffffffffffffffffffffffffffffffffffffffff16146101c0576040517f08c379a00000000000000000000000000000000000000000000000000000000081526004016101b7906108cf565b60405180910390fd5b806001836040516101d19190610745565b908152602001604051809103902090805190602001906101f292919061036b565b505050565b60008060009054906101000a900473ffffffffffffffffffffffffffffffffffffffff16905090565b60008054906101000a900473ffffffffffffffffffffffffffffffffffffffff1673ffffffffffffffffffffffffffffffffffffffff163373ffffffffffffffffffffffffffffffffffffffff16146102ae576040517f08c379a00000000000000000000000000000000000000000000000000000000081526004016102a5906108cf565b60405180910390fd5b8073ffffffffffffffffffffffffffffffffffffffff1660008054906101000a900473ffffffffffffffffffffffffffffffffffffffff1673ffffffffffffffffffffffffffffffffffffffff167f342827c97908e5e2f71151c08502a66d44b6f758e3ac2f1de95f02eb95f0a73560405160405180910390a3806000806101000a81548173ffffffffffffffffffffffffffffffffffffffff021916908373ffffffffffffffffffffffffffffffffffffffff16021790555050565b8280546103779061078b565b90600052602060002090601f01602090048101928261039957600085556103e0565b82601f106103b257805160ff19168380011785556103e0565b828001600101855582156103e0579182015b828111156103df5782518255916020019190600101906103c4565b5b5090506103ed91906103f1565b5090565b5b8082111561040a5760008160009055506001016103f2565b5090565b6000604051905090565b600080fd5b600080fd5b600080fd5b600080fd5b6000601f19601f8301169050919050565b7f4e487b7100000000000000000000000000000000000000000000000000000000600052604160045260246000fd5b6104758261042c565b810181811067ffffffffffffffff821117156104945761049361043d565b5b80604052505050565b60006104a761040e565b90506104b3828261046c565b919050565b600067ffffffffffffffff8211156104d3576104d261043d565b5b6104dc8261042c565b9050602081019050919050565b82818337600083830152505050565b600061050b610506846104b8565b61049d565b90508281526020810184848401111561052757610526610427565b5b6105328482856104e9565b509392505050565b600082601f83011261054f5761054e610422565b5b813561055f8482602086016104f8565b91505092915050565b6000806040838503121561057f5761057e610418565b5b600083013567ffffffffffffffff81111561059d5761059c61041d565b5b6105a98582860161053a565b925050602083013567ffffffffffffffff8111156105ca576105c961041d565b5b6105d68582860161053a565b9150509250929050565b60008115159050919050565b6105f5816105e0565b82525050565b600060208201905061061060008301846105ec565b92915050565b600073ffffffffffffffffffffffffffffffffffffffff82169050919050565b600061064182610616565b9050919050565b61065181610636565b82525050565b600060208201905061066c6000830184610648565b92915050565b61067b81610636565b811461068657600080fd5b50565b60008135905061069881610672565b92915050565b6000602082840312156106b4576106b3610418565b5b60006106c284828501610689565b91505092915050565b600081519050919050565b600081905092915050565b60005b838110156106ff5780820151818401526020810190506106e4565b8381111561070e576000848401525b50505050565b600061071f826106cb565b61072981856106d6565b93506107398185602086016106e1565b80840191505092915050565b60006107518284610714565b915081905092915050565b7f4e487b7100000000000000000000000000000000000000000000000000000000600052602260045260246000fd5b600060028204905060018216806107a357607f821691505b6020821081036107b6576107b561075c565b5b50919050565b600081905092915050565b60008190508160005260206000209050919050565b600081546107e98161078b565b6107f381866107bc565b9450600182166000811461080e576001811461081f57610852565b60ff19831686528186019350610852565b610828856107c7565b60005b8381101561084a5781548189015260018201915060208101905061082b565b838801955050505b50505092915050565b600061086782846107dc565b915081905092915050565b600082825260208201905092915050565b7f43616c6c6572206973206e6f74206f776e657200000000000000000000000000600082015250565b60006108b9601383610872565b91506108c482610883565b602082019050919050565b600060208201905081810360008301526108e8816108ac565b905091905056fea26469706673582212208692f80d01110d5b1acc2366def7057fdfec795753abbc6531a7d0b591ed3f6164736f6c634300080d0033",
  "immutableReferences": {},
  "source": "// SPDX-License-Identifier: GPL-3.0\npragma solidity ^0.8.13;\n\ncontract Certificate {\n    address private owner;\n    mapping(string => string) private merkleRoot;\n\n    event OwnerSet(address indexed oldOwner, address indexed newOwner);\n\n    modifier isOwner() {\n        require(msg.sender == owner, \"Caller is not owner\");\n        _;\n    }\n\n    constructor() {\n        // set the contract deployer as the owner\n        owner = msg.sender;\n        emit OwnerSet(address(0), owner); // log the change in the onership\n    }\n\n    function changeOwner(address newOwner) public isOwner {\n        emit OwnerSet(owner, newOwner);\n        owner = newOwner;\n    }\n\n    function getOwner() external view returns (address) {\n        return owner;\n    }\n\n    function addRoot(string memory batch, string memory root) public isOwner {\n        merkleRoot[batch] = root;\n    }\n\n    function verifyRoot(string memory batch, string memory root)\n        public\n        view\n        returns (bool)\n    {\n        bool veriState;\n        if (keccak256(bytes(merkleRoot[batch])) == keccak256(bytes(root))) {\n            veriState = true;\n        } else {\n            veriState = false;\n        }\n        return veriState;\n    }\n}",
  "sourcePath": "/Users/kubershahi/Documents/GitHub/certificate-verification/contracts/Certificate.sol",
  "compiler": {
    "name": "solc",
    "version": "0.8.13+commit.abaa5c0e.Emscripten.clang"
  },
  "schemaVersion": "3.4.7",
  "updatedAt": "2022-04-26T11:23:33.233Z",
  "devdoc": {
    "kind": "dev",
    "methods": {},
    "version": 1
  },
  "userdoc": {
    "kind": "user",
    "methods": {},
    "version": 1
  }
}