{
  "contractName": "Certificate",
  "abi": [
    {
      "inputs": [],
      "stateMutability": "nonpayable",
      "type": "constructor"
    },
    {
      "anonymous": false,
      "inputs": [
        {
          "indexed": true,
          "internalType": "address",
          "name": "oldOwner",
          "type": "address"
        },
        {
          "indexed": true,
          "internalType": "address",
          "name": "newOwner",
          "type": "address"
        }
      ],
      "name": "OwnerSet",
      "type": "event"
    },
    {
      "anonymous": false,
      "inputs": [
        {
          "indexed": false,
          "internalType": "string",
          "name": "s",
          "type": "string"
        }
      ],
      "name": "log",
      "type": "event"
    },
    {
      "inputs": [
        {
          "internalType": "address",
          "name": "newOwner",
          "type": "address"
        }
      ],
      "name": "changeOwner",
      "outputs": [],
      "stateMutability": "nonpayable",
      "type": "function"
    },
    {
      "inputs": [],
      "name": "getOwner",
      "outputs": [
        {
          "internalType": "address",
          "name": "",
          "type": "address"
        }
      ],
      "stateMutability": "view",
      "type": "function",
      "constant": true
    },
    {
      "inputs": [
        {
          "internalType": "string",
          "name": "batch",
          "type": "string"
        },
        {
          "internalType": "string",
          "name": "root",
          "type": "string"
        }
      ],
      "name": "addRoot",
      "outputs": [
        {
          "internalType": "string",
          "name": "",
          "type": "string"
        }
      ],
      "stateMutability": "nonpayable",
      "type": "function"
    },
    {
      "inputs": [
        {
          "internalType": "string",
          "name": "batch",
          "type": "string"
        }
      ],
      "name": "getRoot",
      "outputs": [
        {
          "internalType": "string",
          "name": "",
          "type": "string"
        }
      ],
      "stateMutability": "view",
      "type": "function",
      "constant": true
    }
  ],
  "bytecode": "0x608060405234801561001057600080fd5b5060008054600160a060020a0319163390811782556040519091907f342827c97908e5e2f71151c08502a66d44b6f758e3ac2f1de95f02eb95f0a735908290a36107c48061005f6000396000f3fe608060405234801561001057600080fd5b5060043610610068577c0100000000000000000000000000000000000000000000000000000000600035046322217224811461006d578063538b4a6c14610096578063893d20e8146100a9578063a6f9dae1146100d1575b600080fd5b61008061007b3660046105e5565b6100e6565b60405161008d9190610652565b60405180910390f35b6100806100a4366004610685565b610199565b60005460405173ffffffffffffffffffffffffffffffffffffffff909116815260200161008d565b6100e46100df3660046106e9565b610341565b005b606060006001836040516100fa919061071f565b908152602001604051809103902080546101139061073b565b80601f016020809104026020016040519081016040528092919081815260200182805461013f9061073b565b801561018c5780601f106101615761010080835404028352916020019161018c565b820191906000526020600020905b81548152906001019060200180831161016f57829003601f168201915b5093979650505050505050565b6060806001846040516101ac919061071f565b908152602001604051809103902080546101c59061073b565b905060000361027157826001856040516101df919061071f565b90815260200160405180910390209080519060200190610200929190610453565b5050604080518082018252601081527f6d65726b6c65526f6f7420416464656400000000000000000000000000000000602082015290517f41304facd9323d75b11bcdd609cb38effffdb05710f7caf0e9b16c6d9d709f5090610264908390610652565b60405180910390a161033a565b600184604051610281919061071f565b9081526020016040518091039020600061029b91906104d7565b826001856040516102ac919061071f565b908152602001604051809103902090805190602001906102cd929190610453565b5050604080518082018252601081527f6d65726b6c65526f6f7420416464656400000000000000000000000000000000602082015290517f41304facd9323d75b11bcdd609cb38effffdb05710f7caf0e9b16c6d9d709f5090610331908390610652565b60405180910390a15b9392505050565b60005473ffffffffffffffffffffffffffffffffffffffff1633146103c6576040517f08c379a000000000000000000000000000000000000000000000000000000000815260206004820152601360248201527f43616c6c6572206973206e6f74206f776e657200000000000000000000000000604482015260640160405180910390fd5b6000805460405173ffffffffffffffffffffffffffffffffffffffff808516939216917f342827c97908e5e2f71151c08502a66d44b6f758e3ac2f1de95f02eb95f0a73591a3600080547fffffffffffffffffffffffff00000000000000000000000000000000000000001673ffffffffffffffffffffffffffffffffffffffff92909216919091179055565b82805461045f9061073b565b90600052602060002090601f01602090048101928261048157600085556104c7565b82601f1061049a57805160ff19168380011785556104c7565b828001600101855582156104c7579182015b828111156104c75782518255916020019190600101906104ac565b506104d3929150610514565b5090565b5080546104e39061073b565b6000825580601f106104f3575050565b601f0160209004906000526020600020908101906105119190610514565b50565b5b808211156104d35760008155600101610515565b7f4e487b7100000000000000000000000000000000000000000000000000000000600052604160045260246000fd5b600082601f83011261056957600080fd5b813567ffffffffffffffff8082111561058457610584610529565b604051601f8301601f19908116603f011681019082821181831017156105ac576105ac610529565b816040528381528660208588010111156105c557600080fd5b836020870160208301376000602085830101528094505050505092915050565b6000602082840312156105f757600080fd5b813567ffffffffffffffff81111561060e57600080fd5b61061a84828501610558565b949350505050565b60005b8381101561063d578181015183820152602001610625565b8381111561064c576000848401525b50505050565b6020815260008251806020840152610671816040850160208701610622565b601f01601f19169190910160400192915050565b6000806040838503121561069857600080fd5b823567ffffffffffffffff808211156106b057600080fd5b6106bc86838701610558565b935060208501359150808211156106d257600080fd5b506106df85828601610558565b9150509250929050565b6000602082840312156106fb57600080fd5b813573ffffffffffffffffffffffffffffffffffffffff8116811461033a57600080fd5b60008251610731818460208701610622565b9190910192915050565b60028104600182168061074f57607f821691505b602082108103610788577f4e487b7100000000000000000000000000000000000000000000000000000000600052602260045260246000fd5b5091905056fea2646970667358221220109de406d3f504d50a6abb3fbe5400248e9c5146d96b8ba3c2708860deddf4e364736f6c634300080d0033",
  "immutableReferences": {},
  "source": "// SPDX-License-Identifier: GPL-3.0\npragma solidity ^0.8.13;\n\ncontract Certificate {\n  address owner;\n  mapping(string => string) merkleRoot;\n  event OwnerSet(address indexed oldOwner, address indexed newOwner);\n  event log(string s);\n\n  modifier isOwner() {\n    require(msg.sender == owner, \"Caller is not owner\");\n    _;\n  }\n\n  constructor() {\n    owner = msg.sender;\n    emit OwnerSet(address(0), owner);\n  }\n\n  function changeOwner(address newOwner) public isOwner {\n    emit OwnerSet(owner, newOwner);\n    owner = newOwner;\n  }\n\n  function getOwner() external view returns (address) {\n    return owner;\n  }\n\n  function addRoot(string memory batch, string memory root) public returns (string memory){\n    string memory s;\n    if (bytes(merkleRoot[batch]).length == 0) {\n        merkleRoot[batch] = root;\n        s = \"merkleRoot Added\";\n        emit log(s);\n    } else {\n        delete merkleRoot[batch];\n        merkleRoot[batch] = root;\n        s = \"merkleRoot Added\";\n        emit log(s);\n    }\n\n    return s;\n  }\n\n  function getRoot(string memory batch) public view returns (string memory) {\n      string memory root = merkleRoot[batch];\n      return root;\n  }\n}\n",
  "sourcePath": "/Users/kubershahi/Documents/GitHub/certificate-verification/contracts/Certificate.sol",
  "compiler": {
    "name": "solc",
    "version": "0.8.13+commit.abaa5c0e.Emscripten.clang"
  },
  "schemaVersion": "3.4.7",
  "updatedAt": "2022-04-28T20:19:32.699Z",
  "networkType": "ethereum",
  "devdoc": {
    "kind": "dev",
    "methods": {},
    "version": 1
  },
  "userdoc": {
    "kind": "user",
    "methods": {},
    "version": 1
  }
}