{
  "contractName": "Certificate",
  "abi": [
    {
      "inputs": [],
      "stateMutability": "nonpayable",
      "type": "constructor"
    },
    {
      "anonymous": false,
      "inputs": [
        {
          "indexed": true,
          "internalType": "address",
          "name": "oldOwner",
          "type": "address"
        },
        {
          "indexed": true,
          "internalType": "address",
          "name": "newOwner",
          "type": "address"
        }
      ],
      "name": "OwnerSet",
      "type": "event"
    },
    {
      "anonymous": false,
      "inputs": [
        {
          "indexed": false,
          "internalType": "string",
          "name": "s",
          "type": "string"
        }
      ],
      "name": "log",
      "type": "event"
    },
    {
      "inputs": [
        {
          "internalType": "address",
          "name": "newOwner",
          "type": "address"
        }
      ],
      "name": "changeOwner",
      "outputs": [],
      "stateMutability": "nonpayable",
      "type": "function"
    },
    {
      "inputs": [],
      "name": "getOwner",
      "outputs": [
        {
          "internalType": "address",
          "name": "",
          "type": "address"
        }
      ],
      "stateMutability": "view",
      "type": "function",
      "constant": true
    },
    {
      "inputs": [
        {
          "internalType": "string",
          "name": "batch",
          "type": "string"
        },
        {
          "internalType": "string",
          "name": "root",
          "type": "string"
        }
      ],
      "name": "addRoot",
      "outputs": [
        {
          "internalType": "string",
          "name": "",
          "type": "string"
        }
      ],
      "stateMutability": "nonpayable",
      "type": "function"
    },
    {
      "inputs": [
        {
          "internalType": "string",
          "name": "batch",
          "type": "string"
        }
      ],
      "name": "getRoot",
      "outputs": [
        {
          "internalType": "string",
          "name": "",
          "type": "string"
        }
      ],
      "stateMutability": "view",
      "type": "function",
      "constant": true
    },
    {
      "inputs": [],
      "name": "test",
      "outputs": [
        {
          "internalType": "string",
          "name": "",
          "type": "string"
        }
      ],
      "stateMutability": "pure",
      "type": "function",
      "constant": true
    }
  ],
  "bytecode": "0x608060405234801561001057600080fd5b50336000806101000a81548173ffffffffffffffffffffffffffffffffffffffff021916908373ffffffffffffffffffffffffffffffffffffffff16021790555060008054906101000a900473ffffffffffffffffffffffffffffffffffffffff1673ffffffffffffffffffffffffffffffffffffffff16600073ffffffffffffffffffffffffffffffffffffffff167f342827c97908e5e2f71151c08502a66d44b6f758e3ac2f1de95f02eb95f0a73560405160405180910390a3610ae6806100db6000396000f3fe608060405234801561001057600080fd5b50600436106100575760003560e01c8063222172241461005c578063538b4a6c1461008c578063893d20e8146100bc578063a6f9dae1146100da578063f8a8fd6d146100f6575b600080fd5b61007660048036038101906100719190610771565b610114565b6040516100839190610842565b60405180910390f35b6100a660048036038101906100a19190610864565b6101ca565b6040516100b39190610842565b60405180910390f35b6100c461037d565b6040516100d1919061091d565b60405180910390f35b6100f460048036038101906100ef9190610964565b6103a6565b005b6100fe6104f1565b60405161010b9190610842565b60405180910390f35b6060600060018360405161012891906109cd565b9081526020016040518091039020805461014190610a13565b80601f016020809104026020016040519081016040528092919081815260200182805461016d90610a13565b80156101ba5780601f1061018f576101008083540402835291602001916101ba565b820191906000526020600020905b81548152906001019060200180831161019d57829003601f168201915b5050505050905080915050919050565b60608060006001856040516101df91906109cd565b908152602001604051809103902080546101f890610a13565b9050036102a6578260018560405161021091906109cd565b90815260200160405180910390209080519060200190610231929190610534565b506040518060400160405280601081526020017f6d65726b6c65526f6f742041646465640000000000000000000000000000000081525090507f41304facd9323d75b11bcdd609cb38effffdb05710f7caf0e9b16c6d9d709f50816040516102999190610842565b60405180910390a1610373565b6001846040516102b691906109cd565b908152602001604051809103902060006102d091906105ba565b826001856040516102e191906109cd565b90815260200160405180910390209080519060200190610302929190610534565b506040518060400160405280601081526020017f6d65726b6c65526f6f742041646465640000000000000000000000000000000081525090507f41304facd9323d75b11bcdd609cb38effffdb05710f7caf0e9b16c6d9d709f508160405161036a9190610842565b60405180910390a15b8091505092915050565b60008060009054906101000a900473ffffffffffffffffffffffffffffffffffffffff16905090565b60008054906101000a900473ffffffffffffffffffffffffffffffffffffffff1673ffffffffffffffffffffffffffffffffffffffff163373ffffffffffffffffffffffffffffffffffffffff1614610434576040517f08c379a000000000000000000000000000000000000000000000000000000000815260040161042b90610a90565b60405180910390fd5b8073ffffffffffffffffffffffffffffffffffffffff1660008054906101000a900473ffffffffffffffffffffffffffffffffffffffff1673ffffffffffffffffffffffffffffffffffffffff167f342827c97908e5e2f71151c08502a66d44b6f758e3ac2f1de95f02eb95f0a73560405160405180910390a3806000806101000a81548173ffffffffffffffffffffffffffffffffffffffff021916908373ffffffffffffffffffffffffffffffffffffffff16021790555050565b606060006040518060400160405280600481526020017f746573740000000000000000000000000000000000000000000000000000000081525090508091505090565b82805461054090610a13565b90600052602060002090601f01602090048101928261056257600085556105a9565b82601f1061057b57805160ff19168380011785556105a9565b828001600101855582156105a9579182015b828111156105a857825182559160200191906001019061058d565b5b5090506105b691906105fa565b5090565b5080546105c690610a13565b6000825580601f106105d857506105f7565b601f0160209004906000526020600020908101906105f691906105fa565b5b50565b5b808211156106135760008160009055506001016105fb565b5090565b6000604051905090565b600080fd5b600080fd5b600080fd5b600080fd5b6000601f19601f8301169050919050565b7f4e487b7100000000000000000000000000000000000000000000000000000000600052604160045260246000fd5b61067e82610635565b810181811067ffffffffffffffff8211171561069d5761069c610646565b5b80604052505050565b60006106b0610617565b90506106bc8282610675565b919050565b600067ffffffffffffffff8211156106dc576106db610646565b5b6106e582610635565b9050602081019050919050565b82818337600083830152505050565b600061071461070f846106c1565b6106a6565b9050828152602081018484840111156107305761072f610630565b5b61073b8482856106f2565b509392505050565b600082601f8301126107585761075761062b565b5b8135610768848260208601610701565b91505092915050565b60006020828403121561078757610786610621565b5b600082013567ffffffffffffffff8111156107a5576107a4610626565b5b6107b184828501610743565b91505092915050565b600081519050919050565b600082825260208201905092915050565b60005b838110156107f45780820151818401526020810190506107d9565b83811115610803576000848401525b50505050565b6000610814826107ba565b61081e81856107c5565b935061082e8185602086016107d6565b61083781610635565b840191505092915050565b6000602082019050818103600083015261085c8184610809565b905092915050565b6000806040838503121561087b5761087a610621565b5b600083013567ffffffffffffffff81111561089957610898610626565b5b6108a585828601610743565b925050602083013567ffffffffffffffff8111156108c6576108c5610626565b5b6108d285828601610743565b9150509250929050565b600073ffffffffffffffffffffffffffffffffffffffff82169050919050565b6000610907826108dc565b9050919050565b610917816108fc565b82525050565b6000602082019050610932600083018461090e565b92915050565b610941816108fc565b811461094c57600080fd5b50565b60008135905061095e81610938565b92915050565b60006020828403121561097a57610979610621565b5b60006109888482850161094f565b91505092915050565b600081905092915050565b60006109a7826107ba565b6109b18185610991565b93506109c18185602086016107d6565b80840191505092915050565b60006109d9828461099c565b915081905092915050565b7f4e487b7100000000000000000000000000000000000000000000000000000000600052602260045260246000fd5b60006002820490506001821680610a2b57607f821691505b602082108103610a3e57610a3d6109e4565b5b50919050565b7f43616c6c6572206973206e6f74206f776e657200000000000000000000000000600082015250565b6000610a7a6013836107c5565b9150610a8582610a44565b602082019050919050565b60006020820190508181036000830152610aa981610a6d565b905091905056fea26469706673582212207d0e8715cdd726efcd067a2b937fdc4e5535417712ddf23582cc41900d39bf6064736f6c634300080d0033",
  "immutableReferences": {},
  "source": "// SPDX-License-Identifier: GPL-3.0\npragma solidity ^0.8.13;\n\ncontract Certificate {\n  address owner;\n  mapping(string => string) merkleRoot;\n\n  event OwnerSet(address indexed oldOwner, address indexed newOwner);\n\n  event log(string s);\n\n  modifier isOwner() {\n    require(msg.sender == owner, \"Caller is not owner\");\n    _;\n  }\n\n  constructor() {\n    // set the contract deployer as the owner\n    owner = msg.sender;\n    emit OwnerSet(address(0), owner); // log the change in the ownership\n  }\n\n  function changeOwner(address newOwner) public isOwner {\n    emit OwnerSet(owner, newOwner);\n    owner = newOwner;\n  }\n\n  function getOwner() external view returns (address) {\n      return owner;\n  }\n\n  function addRoot(string memory batch, string memory root) public returns (string memory){\n    string memory s;\n    if (bytes(merkleRoot[batch]).length == 0) {\n      merkleRoot[batch] = root;\n      s = \"merkleRoot Added\";\n      emit log(s);\n    } else {\n      delete merkleRoot[batch];\n      merkleRoot[batch] = root;\n      s = \"merkleRoot Added\";\n      emit log(s);\n    }\n\n    return s;\n  }\n\n  function getRoot(string memory batch) public view returns (string memory){\n    string memory root = merkleRoot[batch];\n    return root;\n  }\n\n  function test() public pure returns(string memory){\n    string memory s = \"test\";\n    return s;\n  }\n}\n",
  "sourcePath": "/Users/kubershahi/Documents/GitHub/certificate-verification/contracts/Certificate.sol",
  "compiler": {
    "name": "solc",
    "version": "0.8.13+commit.abaa5c0e.Emscripten.clang"
  },
  "schemaVersion": "3.4.7",
  "updatedAt": "2022-04-28T02:18:19.793Z",
  "networkType": "ethereum",
  "devdoc": {
    "kind": "dev",
    "methods": {},
    "version": 1
  },
  "userdoc": {
    "kind": "user",
    "methods": {},
    "version": 1
  }
}