{
  "contractName": "Certificate",
  "abi": [
    {
      "inputs": [],
      "stateMutability": "nonpayable",
      "type": "constructor"
    },
    {
      "anonymous": false,
      "inputs": [
        {
          "indexed": true,
          "internalType": "address",
          "name": "oldOwner",
          "type": "address"
        },
        {
          "indexed": true,
          "internalType": "address",
          "name": "newOwner",
          "type": "address"
        }
      ],
      "name": "OwnerSet",
      "type": "event"
    },
    {
      "inputs": [
        {
          "internalType": "address",
          "name": "newOwner",
          "type": "address"
        }
      ],
      "name": "changeOwner",
      "outputs": [],
      "stateMutability": "nonpayable",
      "type": "function"
    },
    {
      "inputs": [],
      "name": "getOwner",
      "outputs": [
        {
          "internalType": "address",
          "name": "",
          "type": "address"
        }
      ],
      "stateMutability": "view",
      "type": "function",
      "constant": true
    },
    {
      "inputs": [
        {
          "internalType": "string",
          "name": "batch",
          "type": "string"
        },
        {
          "internalType": "string",
          "name": "root",
          "type": "string"
        }
      ],
      "name": "addRoot",
      "outputs": [
        {
          "internalType": "string",
          "name": "",
          "type": "string"
        }
      ],
      "stateMutability": "nonpayable",
      "type": "function"
    },
    {
      "inputs": [
        {
          "internalType": "string",
          "name": "batch",
          "type": "string"
        },
        {
          "internalType": "string",
          "name": "root",
          "type": "string"
        }
      ],
      "name": "verifyRoot",
      "outputs": [
        {
          "internalType": "bool",
          "name": "",
          "type": "bool"
        }
      ],
      "stateMutability": "view",
      "type": "function",
      "constant": true
    },
    {
      "inputs": [],
      "name": "test",
      "outputs": [
        {
          "internalType": "string",
          "name": "",
          "type": "string"
        }
      ],
      "stateMutability": "pure",
      "type": "function",
      "constant": true
    }
  ],
  "bytecode": "0x608060405234801561001057600080fd5b50336000806101000a81548173ffffffffffffffffffffffffffffffffffffffff021916908373ffffffffffffffffffffffffffffffffffffffff16021790555060008054906101000a900473ffffffffffffffffffffffffffffffffffffffff1673ffffffffffffffffffffffffffffffffffffffff16600073ffffffffffffffffffffffffffffffffffffffff167f342827c97908e5e2f71151c08502a66d44b6f758e3ac2f1de95f02eb95f0a73560405160405180910390a3610ac0806100db6000396000f3fe608060405234801561001057600080fd5b50600436106100575760003560e01c80634d9ac0501461005c578063538b4a6c1461008c578063893d20e8146100bc578063a6f9dae1146100da578063f8a8fd6d146100f6575b600080fd5b610076600480360381019061007191906106a8565b610114565b604051610083919061073b565b60405180910390f35b6100a660048036038101906100a191906106a8565b61016f565b6040516100b391906107de565b60405180910390f35b6100c46102b4565b6040516100d19190610841565b60405180910390f35b6100f460048036038101906100ef9190610888565b6102dd565b005b6100fe610428565b60405161010b91906107de565b60405180910390f35b600080828051906020012060018560405161012f91906108f1565b908152602001604051809103902060405161014a9190610a07565b6040518091039020036101605760019050610165565b600090505b8091505092915050565b606080600060018560405161018491906108f1565b9081526020016040518091039020805461019d90610937565b90500361021457826001856040516101b591906108f1565b908152602001604051809103902090805190602001906101d692919061046b565b506040518060400160405280601081526020017f6d65726b6c65526f6f742041646465640000000000000000000000000000000081525090506102aa565b60018460405161022491906108f1565b9081526020016040518091039020600061023e91906104f1565b8260018560405161024f91906108f1565b9081526020016040518091039020908051906020019061027092919061046b565b506040518060400160405280601081526020017f6d65726b6c65526f6f742041646465640000000000000000000000000000000081525090505b8091505092915050565b60008060009054906101000a900473ffffffffffffffffffffffffffffffffffffffff16905090565b60008054906101000a900473ffffffffffffffffffffffffffffffffffffffff1673ffffffffffffffffffffffffffffffffffffffff163373ffffffffffffffffffffffffffffffffffffffff161461036b576040517f08c379a000000000000000000000000000000000000000000000000000000000815260040161036290610a6a565b60405180910390fd5b8073ffffffffffffffffffffffffffffffffffffffff1660008054906101000a900473ffffffffffffffffffffffffffffffffffffffff1673ffffffffffffffffffffffffffffffffffffffff167f342827c97908e5e2f71151c08502a66d44b6f758e3ac2f1de95f02eb95f0a73560405160405180910390a3806000806101000a81548173ffffffffffffffffffffffffffffffffffffffff021916908373ffffffffffffffffffffffffffffffffffffffff16021790555050565b606060006040518060400160405280600481526020017f746573740000000000000000000000000000000000000000000000000000000081525090508091505090565b82805461047790610937565b90600052602060002090601f01602090048101928261049957600085556104e0565b82601f106104b257805160ff19168380011785556104e0565b828001600101855582156104e0579182015b828111156104df5782518255916020019190600101906104c4565b5b5090506104ed9190610531565b5090565b5080546104fd90610937565b6000825580601f1061050f575061052e565b601f01602090049060005260206000209081019061052d9190610531565b5b50565b5b8082111561054a576000816000905550600101610532565b5090565b6000604051905090565b600080fd5b600080fd5b600080fd5b600080fd5b6000601f19601f8301169050919050565b7f4e487b7100000000000000000000000000000000000000000000000000000000600052604160045260246000fd5b6105b58261056c565b810181811067ffffffffffffffff821117156105d4576105d361057d565b5b80604052505050565b60006105e761054e565b90506105f382826105ac565b919050565b600067ffffffffffffffff8211156106135761061261057d565b5b61061c8261056c565b9050602081019050919050565b82818337600083830152505050565b600061064b610646846105f8565b6105dd565b90508281526020810184848401111561066757610666610567565b5b610672848285610629565b509392505050565b600082601f83011261068f5761068e610562565b5b813561069f848260208601610638565b91505092915050565b600080604083850312156106bf576106be610558565b5b600083013567ffffffffffffffff8111156106dd576106dc61055d565b5b6106e98582860161067a565b925050602083013567ffffffffffffffff81111561070a5761070961055d565b5b6107168582860161067a565b9150509250929050565b60008115159050919050565b61073581610720565b82525050565b6000602082019050610750600083018461072c565b92915050565b600081519050919050565b600082825260208201905092915050565b60005b83811015610790578082015181840152602081019050610775565b8381111561079f576000848401525b50505050565b60006107b082610756565b6107ba8185610761565b93506107ca818560208601610772565b6107d38161056c565b840191505092915050565b600060208201905081810360008301526107f881846107a5565b905092915050565b600073ffffffffffffffffffffffffffffffffffffffff82169050919050565b600061082b82610800565b9050919050565b61083b81610820565b82525050565b60006020820190506108566000830184610832565b92915050565b61086581610820565b811461087057600080fd5b50565b6000813590506108828161085c565b92915050565b60006020828403121561089e5761089d610558565b5b60006108ac84828501610873565b91505092915050565b600081905092915050565b60006108cb82610756565b6108d581856108b5565b93506108e5818560208601610772565b80840191505092915050565b60006108fd82846108c0565b915081905092915050565b7f4e487b7100000000000000000000000000000000000000000000000000000000600052602260045260246000fd5b6000600282049050600182168061094f57607f821691505b60208210810361096257610961610908565b5b50919050565b600081905092915050565b60008190508160005260206000209050919050565b6000815461099581610937565b61099f8186610968565b945060018216600081146109ba57600181146109cb576109fe565b60ff198316865281860193506109fe565b6109d485610973565b60005b838110156109f6578154818901526001820191506020810190506109d7565b838801955050505b50505092915050565b6000610a138284610988565b915081905092915050565b7f43616c6c6572206973206e6f74206f776e657200000000000000000000000000600082015250565b6000610a54601383610761565b9150610a5f82610a1e565b602082019050919050565b60006020820190508181036000830152610a8381610a47565b905091905056fea264697066735822122026cd600de34f947aae1a24a8d10d3131781322e4ac4cc7fab6e446b966719b2364736f6c634300080d0033",
  "immutableReferences": {},
  "source": "// SPDX-License-Identifier: GPL-3.0\npragma solidity ^0.8.13;\n\ncontract Certificate {\n  address private owner;\n  mapping(string => string) private merkleRoot;\n\n  event OwnerSet(address indexed oldOwner, address indexed newOwner);\n\n  modifier isOwner() {\n    require(msg.sender == owner, \"Caller is not owner\");\n    _;\n  }\n\n  constructor() {\n    // set the contract deployer as the owner\n    owner = msg.sender;\n    emit OwnerSet(address(0), owner); // log the change in the ownership\n  }\n\n  function changeOwner(address newOwner) public isOwner {\n    emit OwnerSet(owner, newOwner);\n    owner = newOwner;\n  }\n\n  function getOwner() external view returns (address) {\n      return owner;\n  }\n\n  function addRoot(string memory batch, string memory root) public returns (string memory){\n    string memory s;\n    if (bytes(merkleRoot[batch]).length == 0) {\n      merkleRoot[batch] = root;\n      s = \"merkleRoot Added\";\n    } else {\n      delete merkleRoot[batch];\n      merkleRoot[batch] = root;\n      s = \"merkleRoot Added\";\n    }\n    return s;\n  }\n\n  function verifyRoot(string memory batch, string memory root) public view returns (bool){\n    bool veriState;\n    if (keccak256(bytes(merkleRoot[batch])) == keccak256(bytes(root))) {\n        veriState = true;\n    } else {\n        veriState = false;\n    }\n    return veriState;\n  }\n\n  function test() public pure returns(string memory){\n    string memory s = \"test\";\n    return s;\n  }\n}\n",
  "sourcePath": "/Users/abhinavnakarmi/Documents/GitHub/certificate-verification/contracts/Certificate.sol",
  "compiler": {
    "name": "solc",
    "version": "0.8.13+commit.abaa5c0e.Emscripten.clang"
  },
  "schemaVersion": "3.4.7",
  "updatedAt": "2022-04-27T14:12:17.671Z",
  "networkType": "ethereum",
  "devdoc": {
    "kind": "dev",
    "methods": {},
    "version": 1
  },
  "userdoc": {
    "kind": "user",
    "methods": {},
    "version": 1
  }
}